{
  "contractName": "HarmoGame",
  "abi": [
    {
      "inputs": [
        {
          "internalType": "contract IStdReference",
          "name": "_ref",
          "type": "address"
        }
      ],
      "stateMutability": "nonpayable",
      "type": "constructor"
    },
    {
      "anonymous": false,
      "inputs": [
        {
          "indexed": true,
          "internalType": "address",
          "name": "sender",
          "type": "address"
        },
        {
          "indexed": false,
          "internalType": "uint256",
          "name": "amount",
          "type": "uint256"
        }
      ],
      "name": "Received",
      "type": "event"
    },
    {
      "anonymous": false,
      "inputs": [
        {
          "indexed": false,
          "internalType": "uint256",
          "name": "id",
          "type": "uint256"
        },
        {
          "indexed": false,
          "internalType": "uint256",
          "name": "bet",
          "type": "uint256"
        },
        {
          "indexed": false,
          "internalType": "uint256",
          "name": "randomSeed",
          "type": "uint256"
        },
        {
          "indexed": false,
          "internalType": "uint256",
          "name": "amount",
          "type": "uint256"
        },
        {
          "indexed": false,
          "internalType": "address",
          "name": "player",
          "type": "address"
        },
        {
          "indexed": false,
          "internalType": "uint256",
          "name": "winAmount",
          "type": "uint256"
        },
        {
          "indexed": false,
          "internalType": "uint256",
          "name": "randomResult",
          "type": "uint256"
        },
        {
          "indexed": false,
          "internalType": "uint256",
          "name": "time",
          "type": "uint256"
        }
      ],
      "name": "Result",
      "type": "event"
    },
    {
      "anonymous": false,
      "inputs": [
        {
          "indexed": false,
          "internalType": "address",
          "name": "admin",
          "type": "address"
        },
        {
          "indexed": false,
          "internalType": "uint256",
          "name": "amount",
          "type": "uint256"
        }
      ],
      "name": "Withdraw",
      "type": "event"
    },
    {
      "inputs": [],
      "name": "admin",
      "outputs": [
        {
          "internalType": "address payable",
          "name": "",
          "type": "address"
        }
      ],
      "stateMutability": "view",
      "type": "function",
      "constant": true
    },
    {
      "inputs": [],
      "name": "gameId",
      "outputs": [
        {
          "internalType": "uint256",
          "name": "",
          "type": "uint256"
        }
      ],
      "stateMutability": "view",
      "type": "function",
      "constant": true
    },
    {
      "inputs": [
        {
          "internalType": "uint256",
          "name": "",
          "type": "uint256"
        }
      ],
      "name": "games",
      "outputs": [
        {
          "internalType": "uint256",
          "name": "id",
          "type": "uint256"
        },
        {
          "internalType": "uint256",
          "name": "bet",
          "type": "uint256"
        },
        {
          "internalType": "uint256",
          "name": "seed",
          "type": "uint256"
        },
        {
          "internalType": "uint256",
          "name": "amount",
          "type": "uint256"
        },
        {
          "internalType": "address payable",
          "name": "player",
          "type": "address"
        }
      ],
      "stateMutability": "view",
      "type": "function",
      "constant": true
    },
    {
      "inputs": [],
      "name": "lastGameId",
      "outputs": [
        {
          "internalType": "uint256",
          "name": "",
          "type": "uint256"
        }
      ],
      "stateMutability": "view",
      "type": "function",
      "constant": true
    },
    {
      "inputs": [],
      "name": "price",
      "outputs": [
        {
          "internalType": "uint256",
          "name": "",
          "type": "uint256"
        }
      ],
      "stateMutability": "view",
      "type": "function",
      "constant": true
    },
    {
      "inputs": [],
      "name": "randomResult",
      "outputs": [
        {
          "internalType": "uint256",
          "name": "",
          "type": "uint256"
        }
      ],
      "stateMutability": "view",
      "type": "function",
      "constant": true
    },
    {
      "stateMutability": "payable",
      "type": "receive",
      "payable": true
    },
    {
      "inputs": [],
      "name": "getPrice",
      "outputs": [
        {
          "internalType": "uint256",
          "name": "",
          "type": "uint256"
        }
      ],
      "stateMutability": "view",
      "type": "function",
      "constant": true
    },
    {
      "inputs": [],
      "name": "getMultiPrices",
      "outputs": [
        {
          "internalType": "uint256[]",
          "name": "",
          "type": "uint256[]"
        }
      ],
      "stateMutability": "view",
      "type": "function",
      "constant": true
    },
    {
      "inputs": [],
      "name": "convInUsd",
      "outputs": [
        {
          "internalType": "uint256",
          "name": "",
          "type": "uint256"
        }
      ],
      "stateMutability": "view",
      "type": "function",
      "constant": true
    },
    {
      "inputs": [
        {
          "internalType": "uint256",
          "name": "bet",
          "type": "uint256"
        },
        {
          "internalType": "uint256",
          "name": "seed",
          "type": "uint256"
        }
      ],
      "name": "game",
      "outputs": [
        {
          "internalType": "bool",
          "name": "",
          "type": "bool"
        }
      ],
      "stateMutability": "payable",
      "type": "function",
      "payable": true
    },
    {
      "inputs": [
        {
          "internalType": "uint256",
          "name": "Seed",
          "type": "uint256"
        }
      ],
      "name": "callrandomResult",
      "outputs": [],
      "stateMutability": "nonpayable",
      "type": "function"
    },
    {
      "inputs": [
        {
          "internalType": "uint256",
          "name": "random",
          "type": "uint256"
        }
      ],
      "name": "verdict",
      "outputs": [],
      "stateMutability": "payable",
      "type": "function",
      "payable": true
    },
    {
      "inputs": [
        {
          "internalType": "uint256",
          "name": "amount",
          "type": "uint256"
        }
      ],
      "name": "withdraw",
      "outputs": [],
      "stateMutability": "payable",
      "type": "function",
      "payable": true
    }
  ],
  "bytecode": "0x60806040523480156200001157600080fd5b5060405162001b0738038062001b078339818101604052810190620000379190620000d6565b806000806101000a81548173ffffffffffffffffffffffffffffffffffffffff021916908373ffffffffffffffffffffffffffffffffffffffff16021790555033600460006101000a81548173ffffffffffffffffffffffffffffffffffffffff021916908373ffffffffffffffffffffffffffffffffffffffff1602179055505062000164565b600081519050620000d0816200014a565b92915050565b600060208284031215620000e957600080fd5b6000620000f984828501620000bf565b91505092915050565b60006200010f826200012a565b9050919050565b6000620001238262000102565b9050919050565b600073ffffffffffffffffffffffffffffffffffffffff82169050919050565b620001558162000116565b81146200016157600080fd5b50565b61199380620001746000396000f3fe6080604052600436106100c65760003560e01c806398d5fdca1161007f578063ce585e6e11610059578063ce585e6e146102ad578063d3dc1fdf146102d8578063d7c81b55146102f4578063f851a4401461031f5761011b565b806398d5fdca1461022c5780639c1ea71b14610257578063a035b1fe146102825761011b565b8063117a5b90146101205780632e1a7d4d146101615780633ee9d6481461017d57806342403298146101a857806342619f66146101d157806383f818b4146101fc5761011b565b3661011b573373ffffffffffffffffffffffffffffffffffffffff167f88a5966d370b9919b20f3e2c13ff65706f196a4e32cc2c12bf57088f88525874346040516101119190611663565b60405180910390a2005b600080fd5b34801561012c57600080fd5b50610147600480360381019061014291906110fb565b61034a565b6040516101589594939291906116b5565b60405180910390f35b61017b600480360381019061017691906110fb565b6103a0565b005b34801561018957600080fd5b5061019261053a565b60405161019f9190611663565b60405180910390f35b3480156101b457600080fd5b506101cf60048036038101906101ca91906110fb565b610540565b005b3480156101dd57600080fd5b506101e6610585565b6040516101f39190611663565b60405180910390f35b61021660048036038101906102119190611124565b61058b565b6040516102239190611575565b60405180910390f35b34801561023857600080fd5b50610241610748565b60405161024e9190611663565b60405180910390f35b34801561026357600080fd5b5061026c610807565b6040516102799190611553565b60405180910390f35b34801561028e57600080fd5b50610297610c1f565b6040516102a49190611663565b60405180910390f35b3480156102b957600080fd5b506102c2610c25565b6040516102cf9190611663565b60405180910390f35b6102f260048036038101906102ed91906110fb565b610d01565b005b34801561030057600080fd5b50610309610f37565b6040516103169190611663565b60405180910390f35b34801561032b57600080fd5b50610334610f3d565b60405161034191906114d8565b60405180910390f35b60066020528060005260406000206000915090508060000154908060010154908060020154908060030154908060040160009054906101000a900473ffffffffffffffffffffffffffffffffffffffff16905085565b600460009054906101000a900473ffffffffffffffffffffffffffffffffffffffff1673ffffffffffffffffffffffffffffffffffffffff163373ffffffffffffffffffffffffffffffffffffffff1614610430576040517f08c379a000000000000000000000000000000000000000000000000000000000815260040161042790611643565b60405180910390fd5b80471015610473576040517f08c379a000000000000000000000000000000000000000000000000000000000815260040161046a90611590565b60405180910390fd5b600460009054906101000a900473ffffffffffffffffffffffffffffffffffffffff1673ffffffffffffffffffffffffffffffffffffffff166108fc829081150290604051600060405180830381858888f193505050501580156104db573d6000803e3d6000fd5b507f884edad9ce6fa2440d8a54cc123490eb96d2768479d49ff9c7366125a9424364600460009054906101000a900473ffffffffffffffffffffffffffffffffffffffff168260405161052f9291906114f3565b60405180910390a150565b60035481565b4243824303406040516020016105589392919061167e565b6040516020818303038152906040528051906020012060001c600581905550610582600554610d01565b50565b60055481565b600080610596610c25565b9050803410156105db576040517f08c379a00000000000000000000000000000000000000000000000000000000081526004016105d290611623565b60405180910390fd5b600184111561061f576040517f08c379a0000000000000000000000000000000000000000000000000000000008152600401610616906115b0565b60405180910390fd5b34471015610662576040517f08c379a000000000000000000000000000000000000000000000000000000000815260040161065990611603565b60405180910390fd5b6040518060a0016040528060025481526020018581526020018481526020013481526020013373ffffffffffffffffffffffffffffffffffffffff168152506006600060025481526020019081526020016000206000820151816000015560208201518160010155604082015181600201556060820151816003015560808201518160040160006101000a81548173ffffffffffffffffffffffffffffffffffffffff021916908373ffffffffffffffffffffffffffffffffffffffff16021790555090505060016002540160028190555061073d83610540565b600191505092915050565b6000610752610f63565b6000809054906101000a900473ffffffffffffffffffffffffffffffffffffffff1673ffffffffffffffffffffffffffffffffffffffff166365555bcc6040518163ffffffff1660e01b81526004016107aa906115d0565b60606040518083038186803b1580156107c257600080fd5b505afa1580156107d6573d6000803e3d6000fd5b505050506040513d601f19601f820116820180604052508101906107fa91906110d2565b9050806000015191505090565b606080600367ffffffffffffffff8111801561082257600080fd5b5060405190808252806020026020018201604052801561085657816020015b60608152602001906001900390816108415790505b5090506040518060400160405280600381526020017f42544300000000000000000000000000000000000000000000000000000000008152508160008151811061089c57fe5b60200260200101819052506040518060400160405280600381526020017f4554480000000000000000000000000000000000000000000000000000000000815250816001815181106108ea57fe5b60200260200101819052506040518060400160405280600381526020017f4f4e4500000000000000000000000000000000000000000000000000000000008152508160028151811061093857fe5b60200260200101819052506060600367ffffffffffffffff8111801561095d57600080fd5b5060405190808252806020026020018201604052801561099157816020015b606081526020019060019003908161097c5790505b5090506040518060400160405280600381526020017f5553440000000000000000000000000000000000000000000000000000000000815250816000815181106109d757fe5b60200260200101819052506040518060400160405280600381526020017f555344000000000000000000000000000000000000000000000000000000000081525081600181518110610a2557fe5b60200260200101819052506040518060400160405280600381526020017f555344000000000000000000000000000000000000000000000000000000000081525081600281518110610a7357fe5b602002602001018190525060606000809054906101000a900473ffffffffffffffffffffffffffffffffffffffff1673ffffffffffffffffffffffffffffffffffffffff1663e42a071b84846040518363ffffffff1660e01b8152600401610adc92919061151c565b60006040518083038186803b158015610af457600080fd5b505afa158015610b08573d6000803e3d6000fd5b505050506040513d6000823e3d601f19601f82011682018060405250810190610b319190611091565b90506060600367ffffffffffffffff81118015610b4d57600080fd5b50604051908082528060200260200182016040528015610b7c5781602001602082028036833780820191505090505b50905081600081518110610b8c57fe5b60200260200101516000015181600081518110610ba557fe5b60200260200101818152505081600181518110610bbe57fe5b60200260200101516000015181600181518110610bd757fe5b60200260200101818152505081600281518110610bf057fe5b60200260200101516000015181600281518110610c0957fe5b6020026020010181815250508094505050505090565b60015481565b6000610c2f610f63565b6000809054906101000a900473ffffffffffffffffffffffffffffffffffffffff1673ffffffffffffffffffffffffffffffffffffffff166365555bcc6040518163ffffffff1660e01b8152600401610c87906115d0565b60606040518083038186803b158015610c9f57600080fd5b505afa158015610cb3573d6000803e3d6000fd5b505050506040513d601f19601f82011682018060405250810190610cd791906110d2565b90506000816000015190506000670de0b6b3a76400008281610cf557fe5b04905080935050505090565b600060035490505b600254811015610f2a5760008090507f80000000000000000000000000000000000000000000000000000000000000008310158015610d5e575060016006600084815260200190815260200160002060010154145b80610daa57507f800000000000000000000000000000000000000000000000000000000000000083108015610da9575060006006600084815260200190815260200160002060010154145b5b15610e4957600260066000848152602001908152602001600020600301540290506006600083815260200190815260200160002060040160009054906101000a900473ffffffffffffffffffffffffffffffffffffffff1673ffffffffffffffffffffffffffffffffffffffff166108fc829081150290604051600060405180830381858888f19350505050158015610e47573d6000803e3d6000fd5b505b7f42454dd863e57d7fc7c2c8c6a3d1385748e0c2c5224b37d27cad5fb088ddf47b60066000848152602001908152602001600020600001546006600085815260200190815260200160002060010154600660008681526020019081526020016000206002015460066000878152602001908152602001600020600301546006600088815260200190815260200160002060040160009054906101000a900473ffffffffffffffffffffffffffffffffffffffff16868942604051610f14989796959493929190611708565b60405180910390a1508080600101915050610d09565b5060025460038190555050565b60025481565b600460009054906101000a900473ffffffffffffffffffffffffffffffffffffffff1681565b60405180606001604052806000815260200160008152602001600081525090565b600082601f830112610f9557600080fd5b8151610fa8610fa3826117b3565b611786565b91508181835260208401935060208101905083856060840282011115610fcd57600080fd5b60005b83811015610ffd5781610fe38882611007565b845260208401935060608301925050600181019050610fd0565b5050505092915050565b60006060828403121561101957600080fd5b6110236060611786565b905060006110338482850161107c565b60008301525060206110478482850161107c565b602083015250604061105b8482850161107c565b60408301525092915050565b60008135905061107681611946565b92915050565b60008151905061108b81611946565b92915050565b6000602082840312156110a357600080fd5b600082015167ffffffffffffffff8111156110bd57600080fd5b6110c984828501610f84565b91505092915050565b6000606082840312156110e457600080fd5b60006110f284828501611007565b91505092915050565b60006020828403121561110d57600080fd5b600061111b84828501611067565b91505092915050565b6000806040838503121561113757600080fd5b600061114585828601611067565b925050602061115685828601611067565b9150509250929050565b600061116c838361129b565b905092915050565b600061118083836114ba565b60208301905092915050565b611195816118cc565b82525050565b6111a48161187a565b82525050565b60006111b5826117fb565b6111bf8185611836565b9350836020820285016111d1856117db565b8060005b8581101561120d57848403895281516111ee8582611160565b94506111f98361181c565b925060208a019950506001810190506111d5565b50829750879550505050505092915050565b600061122a82611806565b6112348185611847565b935061123f836117eb565b8060005b838110156112705781516112578882611174565b975061126283611829565b925050600181019050611243565b5085935050505092915050565b6112868161188c565b82525050565b61129581611898565b82525050565b60006112a682611811565b6112b08185611858565b93506112c0818560208601611902565b6112c981611935565b840191505092915050565b60006112e1602783611869565b91507f4572726f722c20636f6e74726163742068617320696e737566666963656e742060008301527f62616c616e6365000000000000000000000000000000000000000000000000006020830152604082019050919050565b6000611347601a83611869565b91507f4572726f722c20616363657074206f6e6c79203020616e6420310000000000006000830152602082019050919050565b6000611387600383611869565b91507f4f4e4500000000000000000000000000000000000000000000000000000000006000830152602082019050919050565b60006113c7602083611869565b91507f4572726f722c20696e737566666963656e74207661756c742062616c616e63656000830152602082019050919050565b6000611407600383611869565b91507f55534400000000000000000000000000000000000000000000000000000000006000830152602082019050919050565b6000611447601e83611869565b91507f4572726f722c206d73672e76616c7565206d757374206265203e3d20243100006000830152602082019050919050565b6000611487601783611869565b91507f63616c6c6572206973206e6f74207468652061646d696e0000000000000000006000830152602082019050919050565b6114c3816118c2565b82525050565b6114d2816118c2565b82525050565b60006020820190506114ed600083018461119b565b92915050565b6000604082019050611508600083018561118c565b61151560208301846114c9565b9392505050565b6000604082019050818103600083015261153681856111aa565b9050818103602083015261154a81846111aa565b90509392505050565b6000602082019050818103600083015261156d818461121f565b905092915050565b600060208201905061158a600083018461127d565b92915050565b600060208201905081810360008301526115a9816112d4565b9050919050565b600060208201905081810360008301526115c98161133a565b9050919050565b600060408201905081810360008301526115e98161137a565b905081810360208301526115fc816113fa565b9050919050565b6000602082019050818103600083015261161c816113ba565b9050919050565b6000602082019050818103600083015261163c8161143a565b9050919050565b6000602082019050818103600083015261165c8161147a565b9050919050565b600060208201905061167860008301846114c9565b92915050565b600060608201905061169360008301866114c9565b6116a060208301856114c9565b6116ad604083018461128c565b949350505050565b600060a0820190506116ca60008301886114c9565b6116d760208301876114c9565b6116e460408301866114c9565b6116f160608301856114c9565b6116fe608083018461119b565b9695505050505050565b60006101008201905061171e600083018b6114c9565b61172b602083018a6114c9565b61173860408301896114c9565b61174560608301886114c9565b611752608083018761118c565b61175f60a08301866114c9565b61176c60c08301856114c9565b61177960e08301846114c9565b9998505050505050505050565b6000604051905081810181811067ffffffffffffffff821117156117a957600080fd5b8060405250919050565b600067ffffffffffffffff8211156117ca57600080fd5b602082029050602081019050919050565b6000819050602082019050919050565b6000819050602082019050919050565b600081519050919050565b600081519050919050565b600081519050919050565b6000602082019050919050565b6000602082019050919050565b600082825260208201905092915050565b600082825260208201905092915050565b600082825260208201905092915050565b600082825260208201905092915050565b6000611885826118a2565b9050919050565b60008115159050919050565b6000819050919050565b600073ffffffffffffffffffffffffffffffffffffffff82169050919050565b6000819050919050565b60006118d7826118de565b9050919050565b60006118e9826118f0565b9050919050565b60006118fb826118a2565b9050919050565b60005b83811015611920578082015181840152602081019050611905565b8381111561192f576000848401525b50505050565b6000601f19601f8301169050919050565b61194f816118c2565b811461195a57600080fd5b5056fea2646970667358221220ccd8764d28749dbeabfd1324898e9fbd26dbe0cfb858a92af5834b5863821cff64736f6c634300060b0033",
  "immutableReferences": {},
  "source": "// SPDX-License-Identifier: Apache-2.0\npragma solidity 0.6.11;\npragma experimental ABIEncoderV2;\n\ninterface IStdReference {\n    /// A structure returned whenever someone requests for standard reference data.\n    struct ReferenceData {\n        uint256 rate; // base/quote exchange rate, multiplied by 1e18.\n        uint256 lastUpdatedBase; // UNIX epoch of the last time when base price gets updated.\n        uint256 lastUpdatedQuote; // UNIX epoch of the last time when quote price gets updated.\n    }\n\n    /// Returns the price data for the given base/quote pair. Revert if not available.\n    function getReferenceData(string memory _base, string memory _quote)\n        external\n        view\n        returns (ReferenceData memory);\n\n    /// Similar to getReferenceData, but with multiple base/quote pairs at once.\n    function getReferenceDataBulk(string[] memory _bases, string[] memory _quotes)\n        external\n        view\n        returns (ReferenceData[] memory);\n}\n\ncontract HarmoGame {\n    IStdReference ref;\n    \n    uint256 public price;\n    uint256 public gameId;\n    uint256 public lastGameId;\n    address payable public admin;\n    //declaring 50% chance, (0.5*(uint256+1))\n    uint256 constant half = 57896044618658097711785492504343953926634992332820282019728792003956564819968;\n    uint256 public randomResult;\n    mapping(uint256 => Game) public games;\n    \n    event Withdraw(address admin, uint256 amount);\n    event Received(address indexed sender, uint256 amount);\n    event Result(uint256 id, uint256 bet, uint256 randomSeed, uint256 amount, address player, uint256 winAmount, uint256 randomResult, uint256 time);\n    \n    struct Game{uint256 id;uint256 bet;uint256 seed;uint256 amount;address payable player;}\n    \n    modifier onlyAdmin() {\n        require(msg.sender == admin, 'caller is not the admin');\n        _;\n        \n    }\n\n    constructor(IStdReference _ref) public {\n        ref = _ref;\n        admin = msg.sender;\n    }\n     /* Allows this contract to receive payments */\n    receive() external payable {\n        emit Received(msg.sender, msg.value);\n    }\n    function getPrice() external view returns (uint256){\n        IStdReference.ReferenceData memory data = ref.getReferenceData(\"ONE\",\"USD\");\n        return data.rate;\n    }\n    \n    function getMultiPrices() external view returns (uint256[] memory){\n        string[] memory baseSymbols = new string[](3);\n        baseSymbols[0] = \"BTC\";\n        baseSymbols[1] = \"ETH\";\n        baseSymbols[2] = \"ONE\";\n         \n        string[] memory quoteSymbols = new string[](3);\n        quoteSymbols[0] = \"USD\";\n        quoteSymbols[1] = \"USD\";\n        quoteSymbols[2] = \"USD\";\n        IStdReference.ReferenceData[] memory data = ref.getReferenceDataBulk(baseSymbols,quoteSymbols);\n        \n        uint256[] memory prices = new uint256[](3);\n        prices[0] = data[0].rate;\n        prices[1] = data[1].rate;\n        prices[2] = data[2].rate;\n        \n        return prices;\n    }\n    \n      /** !UPDATE\n       * \n       * ethUsd - latest price from Chainlink oracles (ETH in USD * 10**8).\n       * weiUsd - USD in Wei, received by dividing:\n       *          ETH in Wei (converted to compatibility with etUsd (10**18 * 10**8)),\n       *          by ethUsd.\n       */\n    function convInUsd() public view returns (uint256) {\n        IStdReference.ReferenceData memory data = ref.getReferenceData(\"ONE\",\"USD\");\n        uint256 oneUsd = data.rate;\n        uint256 convUsd = oneUsd/10**18;\n        return uint(convUsd);\n     }\n      /**\n       * Taking bets function.\n       * By winning, user 2x his betAmount.\n       * Chances to win and lose are the same.\n       */\n     function game(uint256 bet, uint256 seed) public payable returns (bool) {\n    \n        /** !UPDATE\n         * \n         * Checking if msg.value is higher or equal than $1.\n        */\n        uint256 convUsd = convInUsd();\n        require(msg.value>=convUsd, 'Error, msg.value must be >= $1');\n \n        //bet=0 is low, refers to 1-3  dice values\n        //bet=1 is high, refers to 4-6 dice values\n        require(bet<=1, 'Error, accept only 0 and 1');\n    \n        //vault balance must be at least equal to msg.value\n        require(address(this).balance>=msg.value, 'Error, insufficent vault balance');\n        \n        //each bet has unique id\n        games[gameId] = Game(gameId, bet, seed, msg.value, msg.sender);\n        \n        //increase gameId for the next bet\n        gameId = gameId+1;\n    \n        callrandomResult(seed);\n        return true;\n     }\n\n    function callrandomResult(uint256 Seed) public {\n        randomResult = uint256(keccak256(abi.encode(now, block.number, blockhash(block.number - Seed))));\n\n        //send final random value to the verdict();\n        verdict(randomResult);\n    }\n    /**\n   * Send rewards to the winners.\n   */\n    function verdict(uint256 random) public payable {\n        //check bets from latest betting round, one by one\n        for(uint256 i=lastGameId; i<gameId; i++){\n            //reset winAmount for current user\n            uint256 winAmount = 0;\n            \n            //if user wins, then receives 2x of their betting amount\n            if((random>=half && games[i].bet==1) || (random<half && games[i].bet==0)){\n            winAmount = games[i].amount*2;\n            games[i].player.transfer(winAmount);\n            }\n            emit Result(games[i].id, games[i].bet, games[i].seed, games[i].amount, games[i].player, winAmount, random, block.timestamp);\n        }\n        //save current gameId to lastGameId for the next betting round\n        lastGameId = gameId;\n    }\n  \n   \n    function withdraw(uint256 amount) external payable onlyAdmin {\n        require(address(this).balance>=amount, 'Error, contract has insufficent balance');\n        admin.transfer(amount);\n        emit Withdraw(admin, amount);\n  }\n}",
  "sourcePath": "C:/Users/aziz/Desktop/Bet_to_win_x2/Bet_to_win_x2/contracts/HarmoGame.sol",
  "compiler": {
    "name": "solc",
    "version": "0.6.11+commit.5ef660b1.Emscripten.clang"
  },
  "schemaVersion": "3.3.2",
  "updatedAt": "2020-12-06T12:51:31.383Z",
  "networkType": "ethereum",
  "devdoc": {
    "kind": "dev",
    "methods": {},
    "version": 1
  },
  "userdoc": {
    "kind": "user",
    "methods": {
      "convInUsd()": {
        "notice": "!UPDATE  ethUsd - latest price from Chainlink oracles (ETH in USD * 10**8). weiUsd - USD in Wei, received by dividing:          ETH in Wei (converted to compatibility with etUsd (10**18 * 10**8)),          by ethUsd."
      },
      "game(uint256,uint256)": {
        "notice": "Taking bets function. By winning, user 2x his betAmount. Chances to win and lose are the same."
      },
      "verdict(uint256)": {
        "notice": "Send rewards to the winners."
      }
    },
    "version": 1
  }
}